:020000040800F2
:1000000000040020A7230008311100083311000864
:10001000371100083B1100083F11000800000000E4
:100020000000000000000000000000004311000874
:1000300045110008000000004711000849110008A0
:10004000C7230008C7230008C7230008C7230008E8
:10005000C7230008C7230008C7230008C7230008D8
:10006000C7230008C7230008C7230008C7230008C8
:10007000C7230008C7230008C7230008C7230008B8
:10008000C7230008C7230008C7230008C7230008A8
:10009000E3080008C7230008C7230008C723000897
:1000A000C7230008C7230008C7230008C723000888
:1000B000C7230008C7230008C7230008C723000878
:1000C000C7230008C7230008C7230008C723000868
:1000D000C72300081B130008A1140008D11600084C
:1000E000C7230008C7230008C7230008C723000848
:1000F000C7230008C7230008C7230008C723000838
:10010000C7230008C7230008C7230008C723000827
:10011000C7230008C7230008C7230008C723000817
:10012000C7230008C7230008C7230008C723000807
:1001300000F002F800F06DF80AA090E8000C82448C
:100140008344AAF10107DA4501D100F062F8AFF269
:10015000090EBAE80F0013F0010F18BFFB1A43F0A5
:10016000010318477C4F00009C4F00000A444FF0E9
:10017000000C10F8013B13F0070408BF10F8014B06
:100180001D1108BF10F8015B641E05D010F8016B4B
:10019000641E01F8016BF9D113F0080F1EBF10F8AF
:1001A000014BAD1C0C1B09D16D1E58BF01F801CBD2
:1001B000FAD505E014F8016B01F8016B6D1EF9D555
:1001C0009142D6D37047000000230024002500266A
:1001D000103A28BF78C1FBD8520728BF30C148BFAA
:1001E0000B607047662904F01B87642903F05C8468
:1001F000782903F09584002070471FB503F0ECFFC9
:1002000004000020002104F039FDE0601FBD10B59E
:1002100010BD04F0E1F81146FFF7EFFF00F081FE9A
:1002200004F0FFF803B4FFF7F2FF03BC00F0F2FFA5
:1002300008B54FF40060ADF8000048208DF80300C9
:100240006946FE4802F08AFD4FF48050ADF8000088
:1002500018208DF803006946F84802F07FFD4FF43E
:100260008070ADF8000003208DF8020010208DF89A
:1002700003006946F24802F071FD4FF40070ADF8DA
:10028000000002208DF8020048208DF80300694626
:10029000EB4802F063FD0820ADF8000002208DF865
:1002A000020048208DF803006946E44802F056FD3C
:1002B0000420ADF8000002208DF8020014208DF813
:1002C00003006946DD4802F049FD08BD08B54FF45A
:1002D000E06002F08DF800214FF0006002F0BFF8FE
:1002E00014208DF8000006208DF8010001208DF803
:1002F00002008DF80300684602F07FF808BD10B5D3
:1003000002F024F8012145F27D2002F0D3FF012103
:10031000CC4802F0DCFF0121084602F0BEFF0121BB
:10032000480602F0D4FF10BD02090A7000F00F0267
:100330004A700A78092A03DD0A7837320A7002E027
:100340000A7830320A704A78092A03DD4A7837324F
:100350004A7002E04A7830324A7070470346002201
:100360000878302805DB0878392802DC087830382E
:1003700008704878302805DB4878392802DC48784E
:10038000303848700878612805DB0878662802DC78
:100390000878573808704878612805DB487866285F
:1003A00002DC4878573848700878412805DB08781F
:1003B000462802DC0878373808704878412805DB81
:1003C0004878462802DC4878373848700A784878F8
:1003D00000EB0212D0B2704730B585B00024F42093
:1003E000009004208DF809008DF8080096480190CF
:1003F00008208DF80A0009208DF80B0002218DF8E5
:100400000C1003218DF80D1004218DF80E1005211C
:100410008DF80F1006218DF8101007218DF811109E
:1004200001218DF812106946884802F0A4F90546AA
:1004300000BF00E0641C2946844802F02FFA01281E
:1004400001D0FF2CF6D1002400E0641C00217F487D
:1004500002F08EFA012801DAFF2CF6D105B030BD8A
:100460002DE9F04186B00746884615460024F42061
:10047000019004208DF80D008DF80C0002978DF886
:100480000E5000BF05E018F804100DF10F000155E3
:10049000641CAC42F7D301A96C4802F06CF9064623
:1004A000002400E0641C3146684802F0F7F9012896
:1004B00001D0FF2CF6D1002400E0641C0021634829
:1004C00002F056FA012801DAFF2CF6D104215F4828
:1004D00002F004FB01282CD15C48006840F00100C8
:1004E0005A4908600846006820F00100086058A1D9
:1004F0005D4803F09DFA5C4801F0C0F801A953483B
:1005000002F039F90646002400E0641C31464F48E9
:1005100002F0C4F9012801D0FF2CF6D1002400E03C
:10052000641C0021494802F023FA012801DAFF2C5B
:10053000F6D106B0BDE8F08130B50346002000BF1B
:1005400006E01C5C0D5CAC4200D030BD441CE0B247
:100550009042F6DB00BFF8E710B5482000F015FE2A
:10056000FFF7CDFEFFF764FEFFF7B0FE10BD10B53C
:100570008AB000243D48807A00285CD03B4840681F
:100580003B4988420FD13B49097801F19450082238
:100590003949FFF765FF39490870002033498872EF
:1005A000322000F013FE3148807C3049497C2F4ACC
:1005B000127C2E4BDB7BCDE90532CDE907102B48B1
:1005C000817B407B294A127B284BDB7ACDE90132C3
:1005D000CDE903012548406800902448837A2548E6
:1005E000027827A1204803F023FA0020324908703E
:1005F00016E01D4830490978405C202804D130209D
:1006000019492D4A1278885417482B490978405CBB
:10061000232800D108E028480078401C26490870AB
:10062000254800783228E4DB00BF0F4801F026F8A7
:1006300000200E498872C82040E0000000080140F8
:10064000000C0140050004002F43651700640040C2
:100650006765742063616E31206F66662172657311
:10066000656E64210D0A0000280500205406002054
:1006700000003911020000209B000020080000202B
:100680004025642C43414E2C6E3D25643A2C494450
:100690003D2538782C6461746125327825327825BF
:1006A000327825327825327825327825327825320D
:1006B00078230D0A000000000300002000F086FDF2
:1006C0000120FE4908600AB010BD10B50024FC48A6
:1006D000807BFC490870FA48C07B48700020FFF717
:1006E0003DFE0446F648007CF6490870F448407C1C
:1006F00048700020FFF732FE00EB0424F048807CB5
:10070000F0490870EE48C07C48700020FFF726FED4
:1007100000EB0424EA48007DEA490870E848407D7F
:1007200048700020FFF71AFE00EB0424204610BD9D
:1007300070B5064600250024E148C07A3038C5B2BD
:10074000082D00DB0825002411E060001730DC498B
:10075000085CDC49087060001830D949085CD94948
:1007600048700020FFF7FAFD3055601CC4B2AC425F
:10077000EBDB284670BD00B58DB0D34801F0A6FE76
:100780000AA801F0C7FF00208DF82E008DF82F0079
:100790008DF830008DF831008DF832008DF833007F
:1007A0008DF82A008DF82B0007208DF82C000620EC
:1007B0008DF82D000920ADF828000AA9C24801F0E3
:1007C0009EFE00208DF822008DF8230001208DF878
:1007D00024000020ADF81800ADF81A00ADF81C0098
:1007E000ADF81E00ADF8200001208DF8250006A808
:1007F00001F00FFF002001908DF80C008DF80E0025
:100800008DF80F0000218DF8101001AAAE4802F0FB
:10081000BEF80198112802D000200DB000BD9DF84F
:100820000C0008B10020F8E79DF80E00022801D066
:100830000020F2E79DF810009DF80F1040EA01201B
:100840004CF6FE21884201D00020E6E70120E4E7D3
:1008500010B588B000249C4801F038FE05A801F0CE
:1008600059FF00208DF81A008DF81B008DF81C0030
:100870008DF81D008DF81E008DF81F008DF81600F4
:100880008DF8170007208DF8180006208DF8190044
:100890000920ADF8140005A98B4801F030FE0120B5
:1008A0008DF80E0000208DF80F0001208DF810004B
:1008B0000020ADF80400ADF80600ADF80800ADF872
:1008C0000A00ADF80C0001208DF8110001A801F01C
:1008D000A0FE012202217C4801F044FF002008B064
:1008E00010BD10B5794A0021774802F050F810BDCC
:1008F0002DE9F0410024082141EA041001F088F9B3
:10090000012425E0082141EA0411C8B201F080F970
:100910006F49086060B26F4908706D48006804F064
:10092000F4F905466C4A6D4B04F006FA074604F0EC
:10093000BBF96B49674A92F9002041F822006448EC
:1009400000686849634A92F9002041F82200641C5B
:10095000082CD7DDBDE8F0812DE9FF5F62A1654875
:1009600003F066F8634803F08EF9401E00F0FF09BB
:100970004A4653495F48FFF7DFFD48453FD109F13B
:10098000010000F0FF094E4810F80900A0F1300AFC
:10099000012412E009EB04004949085C2C2800D12D
:1009A0000DE009EB04004649085C0AEB8A0100EB04
:1009B0004100A0F1300A601CC4B20A2CEADB00BF7F
:1009C00053464D4802784DA14A4803F031F8494852
:1009D00000F054FE484981F800A0642000F0B6FB06
:1009E00045480278521C4AA1424803F021F8414888
:1009F00000F052FE0A2000F0A9FBBDE8FF9F3E4830
:100A0000027848A13B4803F013F83A4803F03BF959
:100A1000401E00F0FF094A4644493648FFF78CFD66
:100A200048450FD000240AE02549085D00F008FD84
:100A30002348005D232800D103E0601CC4B2642C6D
:100A4000F2DB00BF2C48027839A12A4802F0F0FFFF
:100A5000284803F018F9401E00F0FF094A461849DB
:100A60002448FFF769FD48456CD109F1010000F009
:100A7000FF09134810F80900A0F1300ABAF1090F74
:100A80007DD1082141EA0411C8B201F0C1F8104932
:100A90000860322000F05AFB01248EE0082141EA70
:100AA0000411C8B201F0B4F809490860322000F01E
:100AB0004DFB60B207490870054844E088012142B7
:100AC000B00600200E000020006400405406002004
:100AD000AC000020B0000020A05C25E8C710A43EB8
:100AE00008050020E804002040302C736574696418
:100AF0002C00000028050020020000202040256472
:100B00002C67657469642C25642C23200D0A000071
:100B10002040302C73657469642C25642C23200DCF
:100B20000A0000004025642C00000000140700208B
:100B30004025642C72656164616473313235362CF2
:100B4000000000007FE0006804F0DFF80546FE4A80
:100B5000FE4B04F0F1F8074604F0A6F8FC49FD4A04
:100B600092F9002041F82200FB480068FB49F94A4D
:100B700092F9002041F82200F549F64A00E01FE012
:100B800092F9002051F8220004F0D4F9CDE90201D5
:100B9000F248F04991F9001050F821000090ED481A
:100BA00090F90030EE480278EEA1F94802F040FFDB
:100BB000F74800F063FD601CC4B2082C7FF76EAFED
:100BC00000BFBAF1070F3ED8082141EA0A11C8B2A6
:100BD00001F01EF8E0490860322000F0B7FA082161
:100BE00041EA0A11C8B201F013F8DB49086032206B
:100BF00000F0ACFAD848006804F087F80746D24AFB
:100C0000D24B04F099F8054604F04EF8D04941F86B
:100C10002A00D1480068D14941F82A00CC4951F84E
:100C20002A0004F087F9CDE90201CC4850F82A00E7
:100C300053460090CA480278CAA1D54802F0F8FE8F
:100C4000D34800F01BFDC6480278D2A1D04802F07C
:100C5000EFFECF4803F017F8401E00F0FF094A46A8
:100C6000D049CB48FFF768FC48455BD109F101004A
:100C700000F0FF09CB4810F80900A0F1300A012468
:100C800012E009EB0400C749085C2C2800D10DE0F4
:100C900009EB0400C349085C0AEB8A0100EB410040
:100CA000A0F1300A601CC4B20A2CEADB00BF09F1D3
:100CB0000100204400F0FF09BA4810F80900A0F133
:100CC000300B012412E009EB0400B649085C2C2823
:100CD00000D10DE009EB0400B249085C0BEB8B017D
:100CE00000EB4100A0F1300B601CC4B20A2CEADB1F
:100CF00000BF0AF0FF01002000F036FE642000F083
:100D000025FA0BF0FF01802000F02EFE5346944898
:100D1000CDF800B00278A4A19D4802F089FE9C485D
:100D200000F0ACFC8E480278A7A1994802F080FE42
:100D3000974802F0A8FF401E00F0FF094A46994973
:100D40009348FFF7F9FB484570D109F1010000F025
:100D5000FF09944810F80900A0F1300A012412E0BC
:100D600009EB04008F49085C2C2800D10DE009EB49
:100D700004008C49085C0AEB8A0100EB4100A0F1F9
:100D8000300A601CC4B20A2CEADB00BF09F1010082
:100D9000204400F0FF09834810F80900A0F1300B4F
:100DA000012412E009EB04007E49085C2C2800D1E4
:100DB0000DE009EB04007B49085C0BEB8B0100EBB9
:100DC0004100A0F1300B601CC4B20A2CEADB00BF6A
:100DD000BAF1070F1DD2DFE80AF01C04080C10144A
:100DE00018007D48C0F8A0B113E07B48C0F8A4B15A
:100DF0000FE07948C0F8B0B10BE07748C0F8B4B163
:100E000007E07548C0F894B103E07348C0F898B1A2
:100E100000BF00BF53465248CDF800B002786FA122
:100E20005B4802F005FE5A4800F028FC4C48027866
:100E300071A1574802F0FCFD554802F024FF401E06
:100E400000F0FF094A4657495148FFF775FB4845EE
:100E500037D109F1010000F0FF09524810F80900EC
:100E6000A0F1300A012412E009EB04004D49085CAE
:100E70002C2800D10DE009EB04004A49085C0AEB7C
:100E80008A0100EB4100A0F1300A601CC4B20A2CB8
:100E9000EADB00BF5048C0F8A0A1C0F8A4A1C0F888
:100EA000B0A1C0F8B4A1C0F894A1C0F898A153466D
:100EB0002B48027854A1364802F0BAFD344800F0BD
:100EC000DDFB00BF99E570B525480278AFF2AC3183
:100ED0002F4802F0ADFD2E4802F0D5FE401EC5B2EF
:100EE0002A464F492A48FFF727FBA84217D000247B
:100EF0000AE04B49085D00F0FEF94948005D2328EF
:100F000000D103E0601CC4B2642CF2DB00BF1FA15F
:100F10001F4802F08DFD1E4800F0B0FB70BD00BF01
:100F2000FCE700BF00BF00BF00BF00BF00BF00BFA5
:100F300000BFFFF711FB4FF4E13000F08BF94FF4E5
:100F4000E13000F02EFA6DE0A05C25E8C710A43E69
:100F500008050020B0000020AC000020E8040020BC
:100F6000020000204025642C4164632044617461C8
:100F70002063682564203A3078253878202C564F35
:100F80004C20202C252E3566562C23200D0A0000DF
:100F9000280500204025642C736574616435323463
:100FA000332C0000B00600204025642C416435320B
:100FB00034332073657420313D2025642C323D206C
:100FC00025642C23200D0A004025642C736574735E
:100FD00077697463682C0000008021424025642CEE
:100FE0007365747377697463682C25642C25642C8D
:100FF00023200D0A000000004025642C616C6C5F0A
:101000006C696768742C00004025642C616C6C5F0F
:101010006C696768742C2564202C23200D0A00005D
:101020001407002000F096FC00F026FD4FF4FA7043
:1010300000F08CF800F098FD01F0C6F801202B4973
:1010400008602B49C1F8A401284910310860091D26
:10105000086026490C3908602549C1F8980172B624
:1010600000F062FF62B60A2000F070F8002021490B
:101070000870C82000F06AF800201F4908701F4956
:1010800008701F4908701F4908702DE0002017499B
:1010900008601748D0F8940108B9012000E000204A
:1010A00012490C3908601848D0F8940108B9012099
:1010B00000E000201549086000BF0A2000F086F813
:1010C000FFF716FC1249486803F034FF0446224635
:1010D0000B4610A1154802F0ABFC144800F0CEFA04
:1010E0004FF47A7000F032F8D0E70000A08121427E
:1010F0000080214202000020C1000020BF0000202B
:10110000BE000020BC0000200000234294012342C6
:10111000080500206368616E6E656C3120766F6C27
:10112000743D256620560D0A0000000028050020A9
:10113000704700BFFEE700BFFEE700BFFEE700BF4D
:10114000FEE7704770477047704700002F490988D5
:101150004143491E4FF0E022516101219161114646
:10116000096941F00101116100BF4FF0E0210969F7
:1011700001F480310029F8D04FF0E021096921F015
:1011800001014FF0E022116170474FF0E021096941
:1011900021F004014FF0E02211611146096921F0AC
:1011A00002011161C21700EB5272C2F3C702184B61
:1011B0001A701946097801EB4102C2EBC1114FF6D2
:1011C000FF7202EAC101114A118070471049097883
:1011D0004143491E4FF0E0225161012191611146C6
:1011E000096941F00101116100BF4FF0E021096977
:1011F00001F480310029F8D04FF0E021096921F095
:1012000001014FF0E022116170470000B2000020A0
:10121000B4000020014600BF704700BFFA4A1288A0
:1012200002F04002002AF9D0C2B2F74B1B1D1A800F
:10123000704708B525208DF8000001208DF80100C9
:1012400000208DF8020001208DF80300684601F0AF
:10125000D4F808BD10B586B004460121880302F019
:1012600029F80121042002F025F80121084602F0A6
:1012700021F84FF40070ADF8040003208DF806004B
:1012800018208DF8070001A9E04801F067FD4FF430
:101290008060ADF8040003208DF8060004208DF86E
:1012A000070001A9D94801F059FDD74802F0ECF92F
:1012B00002940020ADF80C00ADF80E00ADF810005F
:1012C000ADF814000C20ADF8120002A9CE4802F0CF
:1012D0001EFA0121CC4802F08BFAA021CA4802F084
:1012E00058FB012240F22551C74802F08DFAFFF762
:1012F000A0FF06B010BD10B5044600BF8021C24853
:1013000002F03AFB0128F9D18021BF4802F041FBED
:101310002146BD4802F0D9FA10BD10B540F2255162
:10132000B94802F03FFB38B3B748001D0088C4B28B
:10133000402C05D10120B64908700020B54908703D
:10134000B348007801280DD1B24801780078401CDC
:10135000B04A1070B0484454232C06D10120AF4944
:10136000087002E00020AB490870AA4800786428A1
:1013700002DB0020A749087040F22551A24802F084
:101380003BFB10BD08B526208DF8000001208DF82C
:1013900001008DF802008DF80300684601F02DF879
:1013A00008BD10B586B004460121480401F08FFF46
:1013B0000121042001F07EFF0121084601F07AFF9F
:1013C0000420ADF8040003208DF8060018208DF8E5
:1013D000070001A98D4801F0C1FC0820ADF8040008
:1013E00003208DF8060004208DF8070001A9874826
:1013F00001F0B4FC8A4802F047F902940020ADF8ED
:101400000C00ADF80E00ADF81000ADF814000C2083
:10141000ADF8120002A9824802F079F90121804852
:1014200002F0E6F9A0217E4802F0B3FA012240F270
:1014300025517B4802F0E8F9FFF7A4FF06B010BD84
:1014400010B5044600BF8021754802F095FA0128C6
:10145000F9D18021724802F09CFA2146704802F0CE
:1014600034FA10BD2DE9F04106460C46174600251A
:1014700007EB040825460FE000BF8021684802F012
:101480007BFA0128F9D18021654802F082FA715D6A
:10149000634802F01AFA6D1C4545EDDBBDE8F081AA
:1014A00010B540F225515E4802F07CFA38B35C4832
:1014B000001D0088C4B2402C05D101205949087094
:1014C0000020594908705748007801280DD1564826
:1014D00001780078401C544A107054484454232C1E
:1014E00006D101205249087002E000204E490870E0
:1014F0004D480078642802DB00204B49087040F218
:101500002551474802F078FA10BDF0B503460C4665
:1015100000200025002100BF0CE0C6B26718DF5D87
:1015200086EA0705434E56F82560C0F3072786EA8A
:101530000700491C9142F0DBF0BD08B527208DF86B
:10154000000002208DF8010000208DF8020001202B
:101550008DF80300684600F050FF08BD10B586B056
:1015600004460121082001F0A5FE0121880401F0B4
:10157000AEFE4FF40060ADF8040004208DF80700C3
:1015800001A92D4801F0EAFB4FF48060ADF804009A
:1015900003208DF8060018208DF8070001A92648C1
:1015A00001F0DCFB02940020ADF80C00ADF80E0059
:1015B000ADF81000ADF814000C20ADF8120002A92F
:1015C0001E4802F0A4F801211C4802F011F9A021E4
:1015D0001A4802F0DEF9012240F22551174802F0C4
:1015E00013F9FFF7AAFF06B010BD10B50446214657
:1015F000124802F06AF900BF8021104802F0BCF9DD
:101600000028F9D010BD000000380140000801405A
:10161000BD000020BC000020B0060020BE0000205D
:1016200000440040C0000020BF000020140700203C
:10163000C1000020C8000020000C0140004800400C
:1016400010B5044600BF80212B4802F095F901280F
:10165000F9D18021284802F09CF92146264802F061
:1016600034F910BD70B505460E46002403E0285D30
:10167000FFF7BBFF641CB442F9D370BD70B50446DC
:10168000002505E029466A1CD5B2605CFFF733FEF1
:10169000605D0028F6D170BD70B50446002505E0F8
:1016A00029466A1CD5B2605CFFF7CAFE605D00285F
:1016B000F6D170BD70B50446002505E029466A1CC8
:1016C000D5B2605CFFF7BCFF605D0028F6D170BD4D
:1016D00010B540F22551084802F064F930B10648CF
:1016E000001D0088C4B22046FFF705FE40F22551D8
:1016F000014802F081F910BD00480040022000BFFF
:10170000011EA0F10102D0B2FAD1704708B54FF422
:101710000050ADF8000010208DF8030003208DF874
:1017200002006946B54801F019FB08BD10B5FFF786
:10173000EDFF4FF40050B149086140000861FFF728
:10174000DDFFAE48806808B9012000E0002000F409
:10175000005008B1002010BD4FF40050A749486167
:10176000FFF7CCFFA548806800F4005008B10020C6
:10177000F1E74FF48040A14948610120EBE710B543
:10178000FFF7C4FF4FF480409C4948614010486116
:1017900040000861FFF7B2FF4FF40050974908611D
:1017A000FFF7ACFF10BD10B54FF48040934948617E
:1017B000FFF7ACFF4FF4005090494861FFF79EFFE0
:1017C0004FF480408D490861FFF798FF4FF4804047
:1017D0008A49486110BD10B54FF48040874948617F
:1017E000FFF794FFFFF78AFF4FF400508349086129
:1017F000FFF784FF4FF4804080490861FFF77EFFC8
:101800004FF480407D49486110BD08B54FF4005049
:10181000ADF8000048208DF803006946774801F0D4
:101820009DFA08BD10B50024FFF7EFFF4FF40050FC
:1018300072490861FFF762FF4FF480406F49086109
:10184000FFF75CFF09E0601CC4B2FA2C05DD4FF421
:1018500080406A494861002010BD6848806800F4F3
:1018600000500028EFD14FF48040644948610120C6
:10187000F2E770B50446FFF749FF00251BE04FF47F
:1018800080405E494861FFF739FF04F0800020B1D5
:101890004FF400505949086103E04FF40050574994
:1018A00048616006040E4FF4804054490861FFF718
:1018B00025FF681CC5B2082DE1DB4FF480404F497D
:1018C0004861FFF71BFF70BD70B50546FFF79DFF30
:1018D000002618E04FF4804048494861FFF70EFFAA
:1018E0004FF48040454908614FF6FF7000EA440418
:1018F0000846806800F4005008B144F00104FFF786
:10190000FDFE701CC6B2082EE4DB012D02D1FFF7EC
:1019100062FF01E0FFF747FFE0B270BD08B50121AB
:10192000102001F0C7FC4FF48040ADF80000032008
:101930008DF8020010208DF8030069462F4801F051
:101940000DFA4FF40050ADF8000069462B4801F045
:1019500005FA08BD10B5FFF7E1FF4FF480402749B5
:1019600008614010086110BD70B504460D46FFF7D0
:10197000DDFE5E20FFF77DFFFFF754FF18B9FFF78C
:10198000FEFE002070BDE0B2FFF773FFFFF74AFFD5
:101990002846FFF76EFFFFF7F2FE0120F2E770B571
:1019A00004460D46FFF7C2FE5E20FFF762FFFFF719
:1019B00039FF18B9FFF7E3FE002070BDE0B2FFF772
:1019C00058FFFFF7B3FE5F20FFF753FFFFF72AFF33
:1019D00018B9FFF7D4FE0020EFE70020FFF774FFEF
:1019E0002870FFF7CCFE0120E7E708B56946202004
:1019F000FFF7D5FF9DF8000008BD00000010014072
:101A000000B587B00121042001F054FC0121080336
:101A100001F050FCE020ADF8040003208DF8060032
:101A200018208DF8070001A9A34801F097F90020BC
:101A3000ADF808004FF48270ADF80A000020ADF850
:101A40000C00ADF80E000120ADF810004002ADF81A
:101A500012003820ADF814000020ADF81600072061
:101A6000ADF8180002A9954801F0AEFC0121934899
:101A700001F04FFD07B000BD08B50121042001F0C1
:101A800019FC0120ADF8000048208DF80300032068
:101A90008DF802006946884801F060F910218648F7
:101AA00001F009FA1020ADF8000003208DF80200C3
:101AB00010208DF8030069467F4801F04FF902209D
:101AC000ADF8000010208DF8030003208DF802000F
:101AD00069467B4801F042F90221774801F0EDF9AF
:101AE000FFF78EFF08BD70B50446002500BF022138
:101AF000724801F092FD0028F9D021466F4801F0AC
:101B000039FD00BF01216D4801F087FD0028F9D0A3
:101B10006A4801F031FDC5B2284670BD70B5044673
:101B20000D460220FFF712FB1021634801F0C5F9B2
:101B30000220FFF70BFB00BF5F480830006800F091
:101B400001000028F8D104F00F0141F05000FFF728
:101B5000CAFF0020FFF7C7FF2846FFF7C4FF102188
:101B6000554801F0A8F970BD10B500BF52480830C3
:101B7000006800F001000028F8D10220FFF7E6FA23
:101B800010214D4801F099F90220FFF7DFFAF0200B
:101B9000FFF7A9FF00BF48480830006800F00100C7
:101BA0000028F8D11021444801F085F906210020D1
:101BB000FFF7B4FF00210220FFF7B0FF232103202D
:101BC000FFF7ACFF00210420FFF7A8FF00BF3A4851
:101BD0000830006800F001000028F8D10220FFF76B
:101BE000B5FA1021344801F068F90220FFF7AEFA87
:101BF000F020FFF778FF00BF2F480830006800F0A2
:101C000001000028F8D110212B4801F054F910BD33
:101C100070B50546002400BF27480830006800F072
:101C200001000028F8D10220FFF790FA2946012090
:101C3000FFF774FF0120FFF789FA0220FFF786FA09
:101C400010211D4801F039F90220FFF77FFA012029
:101C5000FFF77CFAFC20FFF746FF0120FFF776FA3A
:101C60000020FFF740FF0120FFF770FA0120FFF787
:101C70003AFF0120FFF76AFAFF20FFF734FF44EA3A
:101C800000440120FFF762FAFF20FFF72CFF44EA2F
:101C900000240120FFF75AFAFF20FFF724FF044336
:101CA0001021054801F007F9B4F5000F01D3A4F1A4
:101CB0008074204670BD00000008014000300140E3
:101CC000000C0140FD48FE494860FE4848607047EE
:101CD000FB48006940F08000F94908617047F84806
:101CE000C16801F0010008B10120704701F0040053
:101CF00008B10220F9E701F0100008B10320F4E771
:101D00000020F2E770B5044600BFFFF7E8FF054684
:101D1000012D00D006E00120FFF758FA601E84B2C2
:101D2000002CF2D100BF04B9FF25284670BD70B564
:101D30000546002445F6FF70FFF7E4FF0446C4B9EA
:101D4000DF48006940F00200DD490861084645614E
:101D5000006940F04000086145F6FF70FFF7D2FFD0
:101D60000446012C05D0D648006920F00200D44971
:101D70000861204670BD70B505460E46FF20FFF78E
:101D8000C1FF044694B9CE48006940F00100CC4937
:101D900008612E80FF20FFF7B5FF0446012C05D017
:101DA000C748006920F00100C5490861204670BDA0
:101DB0000146088870470146087870472DE9F041D0
:101DC00005460E461746002407E036F8141028464C
:101DD000FFF7D1FFAD1C601C84B2BC42F5DBBDE84F
:101DE000F08130B503460C461546002207E0184640
:101DF000FFF7DEFF24F812009B1C501C82B2AA429F
:101E0000F5DB30BD2DE9F05F80468A461746B8F114
:101E1000006F02D3AC48804501D3BDE8F09FFFF7C7
:101E200051FFA8F1006B4FEA9B25CBF34809C9F598
:101E30000074A74200DC3C464EE04FF0006101EB2D
:101E400085208A14A149FFF7CCFF00260BE009EB9F
:101E500006009E4931F810004FF6FF71884200D00D
:101E600003E0701C86B2A642F1DB00BFA6421BDA7B
:101E70004FF0006101EB8520FFF759FF002608E0D5
:101E80003AF8160006EB0901904A22F81100701C7E
:101E900086B2A642F4DB4FF0006101EB85208A1484
:101EA0008A49FFF78BFF04E0224651464046FFF780
:101EB00085FFA74200D110E06D1C4FF000090AEB2E
:101EC000440A08EB4408381B87B2B7F5007F02DDEF
:101ED0004FF4007400E03C46AFE700BFFFF7F8FEA8
:101EE00000BF9AE730B503460C461546002206E0CF
:101EF0001846FFF760FFA0545B1C501C82B2AA4238
:101F0000F6DB30BD13B50446012201A92046FFF7D8
:101F100079FF1CBD00B542226D4801686D48FFF78E
:101F200060FF00BD0020704710B5002442226AA166
:101F30006E4801F07DFD6E48654908604222084602
:101F400001686448FFF74DFF6A4802786AA1674854
:101F500001F06EFD10BD10B50024FF206B49086034
:101F600000BF09E05A48006830F814006749096862
:101F7000484066490860641C412CF3D363480088DC
:101F800081B253480068A0F882104222504801688C
:101F90005048FFF737FF10BD10B50024FF205B4904
:101FA000086000BF09E05A48006830F8140057493B
:101FB0000968484055490860641C192CF3D35348FC
:101FC000008881B2524800684186414909681A2256
:101FD000086B4F490968FFF715FF10BD002000216D
:101FE0004B4A126811604A4A12689160484A126866
:101FF0005160704770B500241A2246A13B4801F099
:1020000017FD494842490860314909681A22086B9E
:102010003F490968FFF7E5FEFF203C49086000BF23
:1020200009E03B48006830F8140038490968484026
:1020300036490860641C192CF3D335480068408E7B
:102040003A490860314800680968884226D0FF2074
:102050002E490860002409E02D48006830F814007B
:102060002A490968484029490860641C192CF3D39F
:102070002648008881B226480068418614490968CC
:102080001A22086B22490968FFF7BCFE274803683B
:102090001E4827A10268154801F0CAFC15480278BD
:1020A0002EA1124801F0C4FC194800682FA1426813
:1020B0000E4801F0BDFC164909685FE02301674541
:1020C00000200240AB89EFCD00000108DC070020B2
:1020D000A4000020008000084070617261207369D4
:1020E0007A652120256420230D0A000028050020A0
:1020F00068060020020000204025642C7061726197
:102100002073686F77230D0A00000000CC040020C4
:10211000A800002040736F632073697A6521202531
:102120006420230D0A000000A0060020D004002037
:1021300040636865636B73756D206572726F7220A2
:102140007265696E697420616E64207361766521C1
:102150002025642C256420230D0A00004025642CD2
:10216000736F632073686F77230D0A0040534F43EA
:102170005F6E202564230D0A00000000886802F0CD
:10218000D9FE05462A460B4605A1094801F050FC38
:102190000848006808A1026B054801F049FC70BDC1
:1021A00040534F435F414820252E3466230D0A00DB
:1021B00028050020A400002040736F632061646440
:1021C00072202564230D0A0008B50121084601F09C
:1021D00071F80121204800F092FE01211F4800F013
:1021E0008EFE0121482001F065F82020ADF80000A6
:1021F00010208DF8030003208DF80200694618486E
:1022000000F0ACFD2021164800F055FE2020ADF86E
:10221000000010208DF8030003208DF802006946AD
:10222000104800F09BFD20210E4800F044FE4FF4C2
:102230008070ADF8000010208DF8030003208DF8A9
:1022400002006946064800F089FD4FF48071044899
:1022500000F033FE08BD0000000430000002300032
:10226000000C0140001801400CB5002001900090C6
:102270004848006840F480304649086000BF45483F
:10228000006800F4003000900198401C0190009814
:1022900018B90198B0F5A06FF1D13E48006800F47C
:1022A000003010B10120009001E000200090009863
:1022B000012844D13848006840F0100036490860D1
:1022C0000846006820F0030008600846006840F0F7
:1022D000020008602F4840682E4948600846406860
:1022E00048600846406840F480604860084640689E
:1022F00020F47C1048600846406840F4E8104860CC
:102300000846006840F08070086000BF21480068FF
:1023100000F000700028F9D01E48406820F003004B
:102320001C4948600846406840F00200486000BF11
:102330001848406800F00C000828F9D101E000BFFF
:10234000FEE70CBD10B5FFF78FFF10BD10B51148AB
:10235000006840F001000F490860084640680F49D6
:1023600008400C494860084600680D490840094982
:1023700008600846006820F480200860084640682D
:1023800020F4FE0048604FF41F008860FFF7DAFF7A
:1023900010BD000000100240002002400000FFF8C5
:1023A000FFFFF6FE70470B4880470B4981F3088812
:1023B0000A480047FEE7FEE7FEE7FEE7FEE7FEE726
:1023C000FEE7FEE7FEE7FEE705480649064A074B3B
:1023D00070470000A52300084014002031010008C8
:1023E000400C00204014002040100020401000202D
:1023F00031490143314A1160704770B50021002313
:102400000F22C47804B32D4C246804F4E064C4F5AE
:10241000E064210AC1F10403CA40447804FA03F1DC
:102420008478144021430901254C0678A15504788D
:1024300004F01F050124AC4005786D11AD0005F1D5
:10244000E025C5F8004109E0047804F01F050124E7
:10245000AC401C4D0678761145F8264070BD1A4AEE
:102460000A400243154B1B1F1A60704739B1134ACB
:10247000121D12680243114B1B1D1A6006E00F4A21
:10248000121D126882430D4B1B1D1A6070470428F1
:1024900008D14FF0E021096941F004014FF0E0223A
:1024A000116107E04FF0E021096921F004014FF0CC
:1024B000E0221161704700000000FA050CED00E019
:1024C00000E400E080E100E080FFFF1F10B504465B
:1024D000FD48844209D10121480600F012FF002185
:1024E0004FF0007000F00DFF08E00121880600F0B9
:1024F00008FF00214FF0806000F003FF10BD30B5F1
:10250000024600200023146824F0020414601468BA
:1025100044F00104146000E05B1C546804F0010402
:102520001CB94FF6FF74A342F6D1546804F00104BD
:102530000CB900206CE08C79012C04D1146844F0B3
:102540008004146003E0146824F080041460CC79E3
:10255000012C04D1146844F04004146003E01468B2
:1025600024F0400414600C7A012C04D1146844F067
:102570002004146003E0146824F0200414604C7AF2
:10258000012C04D1146844F01004146003E01468B2
:1025900024F0100414608C7A012C04D1146844F0E7
:1025A0000804146003E0146824F008041460CC7A72
:1025B000012C04D1146844F00404146003E014688E
:1025C00024F0040414608C78A407CD7844EA0564F0
:1025D0000D7944EA05444D7944EA05540D886D1E91
:1025E0002C43D461146824F001041460002300E03B
:1025F0005B1C546804F001041CB14FF6FF74A34245
:10260000F6D1546804F001040CB1002000E0012070
:1026100030BD10B50021837A012202FA03F1AB4AE2
:10262000126842F00102A94B1A60A84A1C321268D3
:102630008A43A64B1C331A60027BCAB9A34A0C32E8
:1026400012688A43A14B0C331A604288C38842EA5D
:1026500003439E4A4032847A42F8343002888388A9
:1026600042EA0343994A4032847A02EBC40253603F
:10267000027B012A19D1954A0C3212680A43934B06
:102680000C331A604288038842EA03438F4A40327F
:10269000847A42F83430C288838842EA03438B4A02
:1026A0004032847A02EBC4025360C27A3AB9874A54
:1026B000121D12688A43854B1B1D1A6006E0834A6F
:1026C000121D12680A43814B1B1D1A60028932B920
:1026D0007E4A143212688A437C4B14331A60028992
:1026E000012A06D1794A143212680A43774B14330F
:1026F0001A60427B012A06D1744A1C3212680A43CE
:10270000724B1C331A60714A126822F001026F4B3F
:102710001A6010BD00218171C17101724172817214
:10272000C1728170C17003210171022141710121C7
:10273000018070476549096841F00101634A1160F1
:102740001146096843F60E729143604A11601146C2
:10275000096841EA002111601146096821F0010170
:10276000116070471AB143690B43436102E043694A
:102770008B434361704710B502460020936803F015
:102780008063B3F1806F00D110E0936803F00063C1
:10279000B3F1006F01D1012008E0936803F080538A
:1027A000B3F1805F01D1022000E00420042874D03E
:1027B00002F5C07303EB00131B6803F0010402F57C
:1027C000C07303EB00131C600B7A7BB94B7A0C8847
:1027D00043EA445302F5C07404EB00142468234315
:1027E00002F5C07404EB0014236010E00B7A4C680F
:1027F00043EAC4034C7A234302F5C07404EB00148B
:102800002468234302F5C07404EB001423608B7A20
:1028100003F00F038B7202F5C07303EB00135B68C8
:1028200023F00F0402F5C07303EB00135C6002F5A4
:10283000C07303EB00135B688C7A234302F5C0740A
:1028400004EB001463608B7B1C064B7B44EA03445F
:102850000B7B44EA0323CC7A234302F5C07404EBD8
:102860000014A3608B7C1C064B7C44EA03440B7C65
:1028700044EA0323CC7B234302F5C07404EB001429
:10288000E36002F5C07303EB00131B6843F001041F
:1028900002F5C07303EB00131C6010BD024600205C
:1028A00021B1012914D0022930D120E0936803F02E
:1028B000010340EA8300936803F00203184393681E
:1028C000C3F38063184323E00064004000660040C7
:1028D000936803F4807340EA9310936803F40073E1
:1028E00040EA13209368C3F3C063184310E0936871
:1028F00003F4803340EA9330936803F4003340EAF2
:1029000013409368C3F30073184301E0002000BF35
:1029100000BF20B1052804D0072806D103E002201B
:1029200005E0002003E0012001E0002000BF00BF1F
:10293000704721B1012907D002290FD109E082682F
:1029400042F0800282600AE0826842F400428260C3
:1029500005E0826842F40002826000E000BF00BF30
:10296000704711B92022C26001E020220261704745
:102970000246002019B9D36803F0030006E00129DC
:1029800003D1136903F0030000E00020704730B565
:1029900005460C46134605F5D87000EB0410006898
:1029A00000F004001872187A50B905F5D87000EBE1
:1029B0000410006840F2FF7101EA5050186009E00D
:1029C00005F5D87000EB041000686FF0604101EA73
:1029D000D000586005F5D87000EB0410006800F0D6
:1029E0000200587205F5D87000EB0410406800F042
:1029F0000F00987205F5D87000EB04104068000ACB
:102A0000D87405F5D87000EB04108068D87205F50D
:102A1000D87000EB04108068010A197305F5D870AE
:102A200000EB04108068010C597305F5D87000EBB9
:102A300004108068000E987305F5D87000EB041040
:102A4000C068D87305F5D87000EB0410C068010A9F
:102A5000197405F5D87000EB0410C068010C5974A6
:102A600005F5D87000EB0410C068000E987421467C
:102A70002846FFF776FF30BD21B1026842F480326C
:102A8000026003E0026822F480320260704701466F
:102A900000200A6822F0010242F002020A604A683D
:102AA00002F00302022A00D10120704701464FF6CE
:102AB000FF7200200B6823F002030B6000E0521E3F
:102AC0004B6803F00203022B01D1002AF7D14B68B7
:102AD00003F00203022B00D00120704702460020C1
:102AE00093690B400BB1012000E000207047826920
:102AF0008A43826170470246002002EA01030BB15B
:102B0000012000E00020704770B504460D46002605
:102B1000402D47D00EDC072D2BD006DC042D2FD006
:102B2000052D19D0062D61D11CE0082D2ED0202DA9
:102B30005CD131E0B5F5806F46D006DCB5F5807F1D
:102B400036D0B5F5007F51D138E0B5F5803F47D09C
:102B5000B5F5003F4AD13DE0A0680121FFF7CBFF6A
:102B6000064645E0A0684FF48071FFF7C4FF0646B3
:102B70003EE0A0684FF48031FFF7BDFF064637E026
:102B8000E0680821FFF7B7FF064631E0E068102152
:102B9000FFF7B1FF06462BE020690821FFF7ABFFE6
:102BA000064625E020691021FFF7A5FF06461FE035
:102BB000A0690121FFF79FFF064619E0A0690221E5
:102BC000FFF799FF064613E0A0690421FFF793FF82
:102BD00006460DE060681021FFF78DFF064607E00E
:102BE00060680821FFF787FF064601E0002600BF66
:102BF00000BF304670BD402935D00EDC072925D0F6
:102C000006DC042926D0052919D0062943D119E06C
:102C1000082922D020293ED122E0B1F5806F2FD0A3
:102C200006DCB1F5807F21D0B1F5007F33D122E001
:102C3000B1F5803F29D0B1F5003F2CD128E0012229
:102C4000826029E04FF48072826025E04FF4803288
:102C5000826021E00822C2601EE01022C2601BE0F8
:102C60000822026118E01022026115E0826922F058
:102C70000102826110E0826922F0020282610BE0AF
:102C8000826922F00402826106E00822426003E0C9
:102C90001022426000E000BF00BF704710B504463C
:102CA000C448844208D10121042000F01DFB00210A
:102CB000042000F019FB46E0BF48844208D10121FE
:102CC000082000F011FB0021082000F00DFB3AE085
:102CD000BA48844208D10121102000F005FB0021F0
:102CE000102000F001FB2EE0B548844208D10121FC
:102CF000202000F0F9FA0021202000F0F5FA22E06F
:102D0000B048844208D10121402000F0EDFA0021B2
:102D1000402000F0E9FA16E0AB48844208D10121D6
:102D2000802000F0E1FA0021802000F0DDFA0AE0C6
:102D3000A648844207D10121801500F0D5FA002170
:102D4000A01500F0D1FA10BD10B50121084600F021
:102D5000CBFA0021012000F0C7FA10BD2DE9F041A7
:102D6000024600250026002000230024002791F8B9
:102D700003C00CF00F0591F803C00CF0100CBCF16F
:102D8000000F03D091F802C04CEA050591F800C08D
:102D9000BCF1000F31D0146800202BE04FF0010C83
:102DA0000CFA00F3B1F800C00CEA03069E4220D1F1
:102DB00083004FF00F0C0CFA03F7BC4305FA03FC39
:102DC0004CEA040491F803C0BCF1280F06D14FF07F
:102DD000010C0CFA00FCC2F814C00AE091F803C020
:102DE000BCF1480F05D14FF0010C0CFA00FCC2F801
:102DF00010C0401C0828D1D31460B1F800C0BCF149
:102E0000FF0F34DD546800202EE000F1080C4FF075
:102E1000010808FA0CF3B1F800C00CEA03069E4260
:102E200021D183004FF00F0C0CFA03F7BC4305FAD5
:102E300003FC4CEA040491F803C0BCF1280F05D14F
:102E400000F1080C08FA0CF8C2F8148091F803C0DD
:102E5000BCF1480F07D100F1080C4FF0010808FA47
:102E60000CF8C2F81080401C0828CED35460BDE88E
:102E7000F0814FF6FF710180022181700421C17041
:102E800070470246002093680B400BB1012000E020
:102E9000002070470146886880B2704702460020D3
:102EA000D3680B400BB1012000E0002070470146C1
:102EB000C86880B2704701617047416170470AB1CC
:102EC000016100E041617047C16070474FF480329A
:102ED0000A43826181618261826982697047024628
:102EE00000203B4B18684FF68073184040EA0210F0
:102EF0000843374B186070473649C8617047F0B5D2
:102F00000A460023002400210025314E7168C0F3D9
:102F1000034583B200F44016B6F5401F08D121F0F6
:102F200070612B4E766826F07066294F7E6012E045
:102F300000F48016B6F5801F06D1032606FA05F4C4
:102F4000A14341F0706106E0460D360103FA06F632
:102F5000B14341F0706122B1460D360103FA06F625
:102F600031431B4E7160F0BD30B500228B071C0F42
:102F70000F2303FA04F2164B08338C1053F8243055
:102F80009343134C08348D1044F8253023468C109D
:102F900053F824308C07240F00FA04F423430C4C1C
:102FA00008348D1044F8253030BD0A49DC31086002
:102FB0007047000000080140000C01400010014073
:102FC0000014014000180140001C01400020014095
:102FD0000000014000002042DF48006840F001008E
:102FE000DD49086008464068DC490840DA49486025
:102FF00008460068DA490840D74908600846006872
:1030000020F4802008600846406820F4FE004860F4
:103010004FF41F0088607047CF49096821F4803160
:10302000CD4A11601146096821F480211160B0F584
:10303000803F03D0B0F5802F0ED106E0C649096865
:1030400041F48031C44A116007E0C349096841F482
:10305000A021C14A116000E000BF00BF704710B559
:1030600001460022002300204A11012A02D1BA4C55
:10307000236806E0022A02D1B74C236A01E0B64C6D
:10308000636A01F01F02012494401C400CB101202E
:1030900000E0002010BD38B500200090002400257D
:1030A00000BF3120FFF7DBFF05460098401C009071
:1030B0000098B0F5A06F01D0002DF2D03120FFF7BD
:1030C000CEFF08B1012400E00024204638BD0146AF
:1030D0000020A14A106820F0F80040EAC10010600A
:1030E0007047A04908607047024600209A4B586814
:1030F00020F47C1042EA01031843974B5860704754
:1031000098490866704701460020934A506820F0AD
:1031100003000843506070478F48406800F00C007F
:103120007047014600208C4A506820F0F0000843A8
:103130005060704701460020874A506820F4E060E4
:1031400008435060704701460020834A506820F4CD
:10315000605040EAC1005060704729B17E4A527AFF
:1031600002437D4B5A7204E07B4A527A82437A4B87
:103170005A7270477B49D831086070470146002079
:10318000754A506820F44040084350607047002161
:10319000714A20321170704A82F82010012802D042
:1031A00004280AD104E001216B4A2032117005E0A5
:1031B0000521694A2032117000E000BF00BF70474E
:1031C0006949086070476449096A0143624A1162AB
:1031D0007047654944390860704730B500210022C6
:1031E000002400235C4D6D6805F00C0121B1042919
:1031F00005D0082923D105E05C4D056022E05B4D38
:1032000005601FE0544D6D6805F47012524D6D68F5
:1032100005F48034022505EB92421CB9544D554308
:1032200005600BE04C4D6D6805F400351DB1504D47
:103230005543056002E04D4D5543056002E04B4D9E
:10324000056000BF00BF444D6D6805F0F00109093D
:10325000484D6B5C0568DD4045603F4D6D6805F489
:10326000E061090A434D6B5C4568DD4085603A4D7D
:103270006D6805F46051C90A3E4D6B5C4568DD40E0
:10328000C560354D6D6805F44041890B3A4D6B5C66
:10329000C568B5FBF3F5056130BD29B12E4A526909
:1032A00002432D4B5A6104E02B4A526982432A4B58
:1032B0005A61704729B1284A92690243264B9A61A4
:1032C00004E0254A92698243234B9A61704729B1F1
:1032D000214AD2690243204BDA6104E01E4AD269D6
:1032E00082431D4BDA61704729B11B4AD268024301
:1032F000194BDA6004E0184AD2688243164BDA6050
:10330000704729B1144A12690243134B1A6104E051
:10331000114A12698243104B1A61704712494039B1
:10332000086070470F49C86470470B49C8717047FF
:103330000948406A40F0807007494862704701467A
:103340000020054A92680A400AB1012000E00020EE
:103350007047014988727047001002400000FFF872
:10336000FFFFF6FE000042428004424200127A0053
:1033700000093D00D4040020E404002010B50446F8
:10338000BE48844208D101218014FFF7ADFF00211F
:10339000A014FFF7A9FF16E0B948844208D1012123
:1033A0000014FFF7AEFF00212014FFF7AAFF0AE088
:1033B000B448844207D10121C013FFF7A2FF0021C6
:1033C000E013FFF79EFF10BD10B50022028802F443
:1033D00041520B884C8823438C882343CC88234359
:1033E0000C8923434C8923438C892343CC89234371
:1033F0001A430280838B4FF2FF74234083830B8A2E
:10340000038210BD2DE9F04F85B005460C464FF004
:10341000000902274FF000084FF0010B0026B246CA
:10342000A88B4FF240010840A88302202884B5F8F9
:103430001C902089022801D100BF38E0A08810B973
:103440004FF0010B01E04FF0020B8D48854200D197
:1034500000E000BF6846FFF7C0FEDDF800A0E0888E
:10346000B0F5007F0AD14FEA1A2000EB800040003F
:103470002189B0FBF1F0401D86B20BE04FEA4B1002
:10348000BAFBF0F000EB800040002189B0FBF1F0C6
:10349000401D86B20A20B6FBF0F606F00108A6EB46
:1034A0000800C0F34F074FF6FF7000EA0828022F0C
:1034B00001DBFF2F02DD02274FF00008E08840EA21
:1034C000080038432884A08861890843618808433C
:1034D0002188084340F4006040EA0909A5F81C90DF
:1034E00005B0BDE8F08F0021018041808180C1805E
:1034F000018141818181C1810721018270470021C1
:10350000018041808180C1800221018100214181AF
:10351000704721B1028842F04002028004E0028834
:103520004FF6BF731A400280704721B1828B42F47C
:103530008062828304E0828B4FF6FF331A408283DD
:10354000704730B5002400230C110125A540ABB213
:103550001AB185881D43858002E085889D4385805A
:1035600030BD1AB183880B43838002E083888B438C
:1035700083807047818170470146888970474FF684
:10358000FF62914204D0028842F48072028004E01B
:1035900002884FF6FF631A400280704721B182888B
:1035A00042F00402828004E082884FF6FB731A40E6
:1035B0008280704702884FF2FF731A4002800288AF
:1035C0000A4302807047018841F4805101807047AE
:1035D00021B1028842F40052028004E002884DF6D4
:1035E000FF731A400280704702460020012901D073
:1035F000108B00E0908A70470146088A7047B1F549
:10360000804F04D1028842F48042028004E00288A4
:103610004BF6FF731A400280704702460020138960
:103620000B400BB1012000E000207047CA4302812B
:103630007047F0B50246002000240023002501F069
:103640000F070126BE40B4B20B1101269E40B3B253
:10365000968806EA03051689264016B10DB10120A9
:1036600000E00020F0BD10B5002201F00F0401239E
:10367000A3409AB2D343038110BD00000030014043
:1036800000380040003C004010B50446E248844247
:1036900009D101218803FFF727FE00214FF4804064
:1036A000FFF722FE32E0DD48844209D101214804BF
:1036B000FFF727FE00214FF40030FFF722FE25E040
:1036C000D748844209D101218804FFF71AFE00215E
:1036D0004FF48020FFF715FE18E0D248844209D14C
:1036E0000121C804FFF70DFE00214FF40020FFF771
:1036F00008FE0BE0CC48844208D101210805FFF701
:1037000000FE00214FF48010FFF7FBFD10BD2DE9F6
:10371000F04786B005460E460024A24600BF00BF13
:103720000027B08900B100BF2F462C8A4CF6FF70ED
:103730000440F08804432C82AC894EF6F310044018
:10374000B08831890843718908430443AC81AC8A4D
:103750004FF6FF400440B0890443AC8201A8FFF754
:103760003CFDAD48874202D1DDF810A001E0DDF854
:103770000CA00AEBCA0000EB0A1031688900B0FB0C
:10378000F1F86420B8FBF0F004012009642101FB8A
:103790001089322000EB0910B0FBF1F000F00F00AF
:1037A00004432C8106B0BDE8F0874FF41651016048
:1037B00000218180C18001810C2141810021818112
:1037C000704710B502460020108A4FF2FF031840E0
:1037D0000B884C8823438C882343CC88234318438D
:1037E000108210BD0021018041808180C18070471E
:1037F00021B1828942F40052828104E082894DF62F
:10380000FF731A4082817047F0B5034600240026FA
:103810000025002040F66A17B94200D100BF1846C3
:10382000C1F3421401F01F06012707FA06F5012C27
:1038300001D10C3004E0022C01D1103000E0143032
:103840001AB107682F43076002E00768AF430760BB
:10385000F0BD1AB1838A0B43838202E0838A8B43D3
:1038600083827047028A4FF6F0731A400282028AFE
:103870000A430282704782894FF2FF731A408281A5
:1038800082890A438281704721B1828942F0020213
:10389000828104E082894FF6FD731A40828170476D
:1038A000028A4FF6DF731A400282028A0A430282BA
:1038B000704721B1028A42F48042028204E0028A07
:1038C0004BF6FF731A4002827047C1F308028280F0
:1038D000704701468888C0F308007047818941F02D
:1038E000010181817047028BD2B20283028B42EACE
:1038F000012202837047028B02F47F420283028B13
:103900000A430283704721B1828A42F020028282F8
:1039100004E0828A4FF6DF731A408282704721B139
:10392000828A42F01002828204E0828A4FF6EF73AC
:103930001A408282704721B1828A42F00802828254
:1039400004E0828A4FF6F7731A4082827047828AB7
:103950004FF6FB731A408282828A0A438282704742
:1039600021B1828A42F00202828204E0828A4FF60A
:10397000FD731A408282704702460020B1F5007F35
:1039800000D100BF13880B400BB1012000E00020E4
:10399000704701F40072B2F5007F00D100BFCA4346
:1039A0000280704770B502460024002300250020E5
:1039B00040F66A16B14200D100BFC1F3421501F0D2
:1039C0001F03012606FA03F3012D02D19689334025
:1039D00006E0022D02D1168A334001E0968A334078
:1039E0000C12012606FA04F41688344013B10CB107
:1039F000012000E0002070BD10B50022002340F639
:103A00006A14A14200D100BF0A1201249440A3B25B
:103A1000DC43048010BD0000003801400044004039
:103A200000480040004C004000500040704700003B
:103A30000FB41CB5074B06AA7B4469460090059855
:103A400000F0B1FB0020694600F0C0FB1CBC5DF833
:103A500014FB00009107000070B5044685690068FA
:103A6000C10601D5302600E02026C00707D070BD72
:103A7000D4E9012130469047206A401C20626D1E27
:103A8000F6D570BD70B5044685690078C00707D1CA
:103A900070BDD4E9012120209047206A401C20629B
:103AA0006D1EF6D570BD00002DE9F04106460024DC
:103AB00010687529314616A510D0AFF30080002894
:103AC00002DA404213A507E031688A0701D512A542
:103AD00002E0490704D511A5012401E0AFF30080FD
:103AE00000210A2206F1240709E0B0FBF2FCB0FB3A
:103AF000F2F302FB1C00303078541846491C0028B1
:103B0000F3D123462A463046BDE8F04100F0DEB846
:103B1000000000002D0000002B000000200000002D
:103B200070B504460D4621461068AFF30080218829
:103B3000090502D50F4A7A4402E00E4A7A440E3251
:103B4000002104F1240305E000F00F060009965D52
:103B50005E54491C0028F7D120780023000704D5C3
:103B6000702D02D009B1022311322046BDE8704009
:103B700000F0ACB8EA1400002DE9F0474FF0000A5D
:103B800089460446C0F820A02046E16888470028FE
:103B900076D0252806D0D4E901219047206A401C20
:103BA0002062F1E7E168204600258847C4F81CA0A0
:103BB00006460027C4F818A02A2E09D0304601F086
:103BC00055F838B304EB8708303EC8F8186019E0A0
:103BD00059F8041B204604EB87029161E16888478D
:103BE000012F064618D1E069002820DA25F02005CB
:103BF0001DE0D8F8180000EB800006EB40003038DC
:103C0000C8F818002046E1688847064601F02EF8FB
:103C10000028EED1012F0AD02E2E08D12046E168CF
:103C200088477F1C0646022F45F02005C4DBA069AB
:103C3000002803DA404245F00105A061E80701D001
:103C400025F01005B6B1A6F14100192802D820369A
:103C500045F400654A463146204625604D46FCF74E
:103C6000C1FA58B1012806D0ED1D25F0070000F17A
:103C7000080989E704E005F1040985E730468AE789
:103C8000206ABDE8F08710B5431C02E010F8011B64
:103C900071B18107FAD14FF0013202C88C1A8C43FE
:103CA00014EAC211F9D0C01A0A0603D0C01E10BD12
:103CB000C01A10BD0A0401D0801E10BD0902FCD03C
:103CC000401E10BD70477047704770472DE9F047A0
:103CD0000D4699469246044600F12408016888067C
:103CE00004D5E06921F01001216000E00120A84224
:103CF00001DD471B00E00027A1697A1902EB0900EA
:103D0000081AA0612078C00602D42046FFF7A4FE5E
:103D1000002608E0D4E901211AF806009047206A3D
:103D2000401C761C20624E45F4DB2078C0060AD584
:103D30002046FFF791FE06E0D4E9012130209047AC
:103D4000206A401C2062381EA7F10107F4DC07E05E
:103D5000D4E9012118F805009047206A401C206230
:103D6000281EA5F10105F3DC2046FFF78BFE207825
:103D7000000602D50220BDE8F0870120FBE770476E
:103D80002DE9FF4F0C461E464FF0FF378BB0D2E9AE
:103D90000001DDF860800A908A46C1F30A5505B932
:103DA0003D46002108464FF00000BAF1000F00F434
:103DB000400005DA00EB80004FF4400101EA5000BA
:103DC0004FEA9059B9F1010F00DDB9460A9850EA5F
:103DD0004A000ED044F61050A5F2FF3545432F148B
:103DE000B8F1000F1ED07542291E1EDDC9F1000278
:103DF0001CE0B8F1010F4FF0000001D0302103E0CA
:103E0000F24305E02154401CB042FBDB3046002267
:103E1000002121540B99C1F80880C1E900200FB09E
:103E2000BDE8F08FBD1B6D1CDEE74A4600DA694233
:103E300006A800F05BFA06AB93E8070003AB83E843
:103E4000070050460A9900F035FB8DE80700A0F501
:103E500000501F3800900398002D0ADD42F21F0128
:103E60004A460844002303A90390684600F09EFDDB
:103E700009E0A0F500504A461F38002303A903902B
:103E8000684600F0A8FD8DE807000004000C03D090
:103E90004FF0FF30410800E01046B8F1000F03D0AA
:103EA0000022009215461EE0751E05D400F098F918
:103EB000303262556D1EF9D5B3460122084302D057
:103EC00000227F1C04E02078302801D100227F1ED0
:103ED000002A099784D01DE0112D07DA00F080F93F
:103EE000303262556D1C50EA0102F5D1084302D010
:103EF0000098C8B10EE00021681E05E0235C625CFA
:103F000063542254401E491C8142F7DBAB46A81B78
:103F1000401E0990002004F80B000B98099AC0F885
:103F20000880C0E9002B7AE711264FF0000857E718
:103F30002DE9F04F88460446D21D22F0070191B0CA
:103F4000D1E90001CDE90A0100F07CFE02460B98A0
:103F5000C00F01D02D2007E02068810701D52B205C
:103F600002E0202101EAC000032A099001D0072ABB
:103F700005DB03464146204600F078F90BE1207846
:103F8000800601D5E06900E00620B8F1650F8146A2
:103F900006D0B8F1660F18D0B8F1670F70D131E0D4
:103FA0000020B9F1110F009001DB112301E009F1AC
:103FB00001030AAA01A90CA8FFF7E2FEDDE90C70D3
:103FC000002609F10105834647E001204B46009099
:103FD0004FF000470AAA01A90CA8FFF7D1FEDDE9BE
:103FE0000DB00C995D46002610B909F101000D18BD
:103FF000B9EB050003D4C0F1FF3609F10105A5EBCB
:1040000009002BE0B9F1010F01DA4FF0010900209E
:10401000B9F1110F0090484601DD112300E003467D
:104020000AAA01A90CA8FFF7ABFEDDE90C704D460A
:1040300000268346207800070AD4AB4500DA5D46A7
:1040400001A8012D04DD411911F8011C302907D008
:104050004F4502DA17F1040F04DA012082460FE01F
:104060006D1EEEE7002F02DCED1B3E4403E0781CE2
:10407000A84200DD7D1CB81B00F1010A4FF000478B
:104080002078000703D4AA4501DB4FF0FF3A002156
:10409000B7F1004F0DF143088DF8431024D00220F2
:1040A0002B23002F01DA7F422D230A21021EA0F1CB
:1040B000010000DC5FB197FBF1FC97FBF1F201FB23
:1040C0001C7C17460CF1300C08F801CDEEE7A8F186
:1040D000010003702188090501D5452100E0652113
:1040E000A0F1010800F8011C09980FA9A1EB08072D
:1040F000FF1D00B10120411901EBEA70A1693844AC
:10410000081A401EA0612078C00602D42046FFF79E
:10411000A3FC099828B1D4E901219047206A401CEA
:1041200020622078C00622D52046FFF795FC1EE0CD
:10413000002E04DBB34502DD01A8805D00E03020E5
:10414000D4E901219047206A401C2062761CAAF124
:1041500001005FEA000A0AD100F03EF8C068016879
:10416000405CD4E901219047206A401C2062281E4F
:10417000A5F10105DCDC07E0D4E9012118F8010B09
:104180009047206A401C2062381EA7F10107F3DC2B
:104190002046FFF777FC032011B041E601694A1C75
:1041A00002610878704700B58FB0CDE90131002178
:1041B000059105497944CDE9031011466846FFF79A
:1041C000DBFC0FB000BD0000E5FFFFFF0A6802F84E
:1041D000010B0A607047000000487047FC0B00208C
:1041E00030B5B0F10A024FEA900E71F100034EEAC9
:1041F000817EB0EB0E0061EB91014FEA101E4EEA9A
:10420000017E10EB0E0041EB11114FEA102E4EEA29
:10421000016E10EB0E0041EB11214FEA104E4EEAF9
:10422000014E10EB0E0041EB1141401841F100012D
:104230004FEAD00040EA41704FEAD10110EB80050F
:104240004FEA810444EA907444EB01046D1944EB95
:104250000404521BA3414FF0000348BF0A3200D5AB
:1042600030BD401C41F1000130BD00002DE9F0419E
:104270001F46044603260168072A01F4006004DB98
:1042800008B116A505E016A503E008B115A500E0E4
:1042900015A521F010002060A069C01EA0610FB11B
:1042A000401EA0612046FFF7D7FB4FB1D4E90121A2
:1042B00038469047206A401C2062C01C206206E0FD
:1042C000206AFAE7D4E9012115F8010B9047761E20
:1042D000F8D22046FFF7D6FBBDE8F0814E414E00F4
:1042E0006E616E00494E4600696E66002DE9F0472A
:1042F000814616468AB0354878440DC88DE80D00D1
:1043000032487844801C03AC0DC884E80D0041F6A7
:104310009B300844372190FBF1F290FBF1F5A5F1B9
:10432000800501FB12041B3C02D56442012000E021
:104330000020DFF898A080460027FA44AAF1BE0AC0
:104340000EE0E0070AD03246684607EB470101233A
:104350000AEB810100F03FFB8DE8070064107F1C31
:10436000002CEED1194F7F44AE3F19E0E80715D07D
:1043700007EB04100DF1180A90E80E008AE80E0011
:10438000C068F04201D1981908903246012306A96D
:1043900003A800F020FB03AB83E807006D10641C4A
:1043A000002DE3D14FF0010332466946B8F1000F0A
:1043B00003A802D000F0FAFA01E000F00CFBC9E912
:1043C0000001C9F808200AB0BDE8F087CC0D000054
:1043D00000487047DC0B00207546FFF7F9FFAE463A
:1043E00005006946534620F00700854618B020B501
:1043F000FDF7EAFFBDE820404FF000064FF0000750
:104400004FF000084FF0000B21F00701AC46ACE87C
:10441000C009ACE8C009ACE8C009ACE8C0098D46E9
:10442000704710B50446AFF300802046BDE8104049
:10443000FBF7F8BE4FF0013C50F8042B51F8043B59
:104440009A4221D1A2EB0C03934313EACC1317D168
:1044500050F8042B51F8043B9A4215D1A2EB0C03FF
:10446000934313EACC130BD150F8042B51F8043BBF
:104470009A4209D1A2EB0C03934313EACC13DBD08D
:104480004FF00000704700BFD01A01BAB1FA81F1B5
:1044900001F0180122FA01F0CB40C1F12001DBB29A
:1044A000C0B2C01A2CFA01F3D11A914311EAC31118
:1044B000E6D170475FEA400C08BF91F0000F4FEA69
:1044C0008C234FEAC12243EA51514FEA1C5018BFD6
:1044D00000F5F0404FEA300018BF41F000415FEABC
:1044E0006C5C00F02980BCF1FF3F08BF40F08040C9
:1044F0007047130C06BF12044FF0100C4FF0000C65
:10450000130E04BF12020CF1080C130F04BF1201AA
:104510000CF1040C930F04BF92000CF1020CD30FAA
:1045200004BF52000CF1010C11464FF00002A0F143
:104530001F00A0EB0C00704711F0004F08BF704740
:1045400031F000413FF4D5AF0B0C06BF09044FF02A
:10455000100C4FF0000C0B0E04BF09020CF1080CFC
:104560000B0F04BF09010CF1040C8B0F04BF890071
:104570000CF1020CCB0F04BF49000CF1010CCCF183
:104580002003A0EB0C0022FA03F302FA0CF241EA3A
:10459000030100F10100704720F07F4C80EA030026
:1045A00023F07F47ACEB070303F57C5300F000409A
:1045B00003F1FF032DE980494FEA154B09B44FEA97
:1045C000144325EA0B4E24EA03480FF2042606EBB7
:1045D000132749083E785FEA320203FB0667C7F5F6
:1045E000000707FB06F64FEA54374FEAD64606F1B6
:1045F000020607FB066CCCF1005C4FEA1C472CEA74
:10460000074C07FB06F40CFB06F504EB15464FEAD6
:10461000961634BF00204FF000404FEAD13706FB1A
:1046200007FC4FEA1C4C0CFB0BF7D21B03FB0CF7EF
:1046300061EB07010CFB0EF7B0EB074072EB174282
:104640000CFB08F734BFA2EB0742B2EB074261EB69
:1046500017414FEA0C444FEA910706FB07FC4FEA6B
:104660001C4C0CFB0BF7B0EBC74072EB573203FB53
:104670000CF734BFA2EBC742B2EBC74261EB573134
:104680000CFB0EF7B0EBC70072EB57720CFB08F790
:1046900034BFA2EBC702B2EBC70261EB5771039FB5
:1046A0004FEA816141EA921104EBCC044FEAD13721
:1046B0004FEA826206FB07FC42EA90124FEA8060F2
:1046C0004FEA1C4C0CFB0BF7D21B03FB0CF761EB06
:1046D00007010CFB0EF7B0EB074072EB17420CFB27
:1046E00008F734BFA2EB0742B2EB074261EB174178
:1046F0004FEA8C554FEA910704EB9C2406FB07FC1C
:104700004FEA1C4C0CFB0BF7B0EBC74072EB573277
:1047100003FB0CF734BFA2EBC742B2EBC74261EB1D
:1047200057310CFB0EF7B0EBC70072EB57720CFB66
:1047300008F734BFA2EBC702B2EBC70261EB5771B7
:1047400015EB4C254FEA816141EA92114FEA8262F2
:104750004FEAD13742EA901206FB07FC44F100040D
:104760004FEA80604FEA1C4C0CFB0BF7D21B03FB9B
:104770000CF761EB07010CFB0EF7B0EB074072EB97
:1047800017420CFB08F734BFA2EB0742B2EB07421B
:1047900061EB174115EB1C154FEA813141EA92415B
:1047A0004FEA823242EA90424FEA80304FEA0C767A
:1047B00044F1000448EA03434EEA0B484FF0000E70
:1047C000B2EB080C71EB030724BF624639464EEB8F
:1047D0000E0E4FF0000B0018524149414BEB0B0BF2
:1047E000B2EB080C71EB03077BF1000B24BF6246B0
:1047F00039464EEB0E0E4FF0000B00185241494166
:104800004BEB0B0BB2EB080C71EB03077BF1000BCE
:1048100024BF624639464EEB0E0E51EA020718BF1E
:1048200046F0010616EB0E7655F1000254F1000138
:1048300003D5BDE88901BDE80088BDE88901BDE870
:104840000048B619524141EB0101A3F10103704741
:1048500080807F7E7D7C7B7A7978777676757473BD
:10486000727171706F6E6E6D6C6C6B6A6A6968687C
:10487000676666656464636362616160605F5F5E12
:104880005E5D5D5C5C5B5B5A5A5959585857575688
:1048900056555555545453535252525151505050ED
:1048A0004F4F4F4E4E4D4D4D4C4C4C4B4B4B4A4A3F
:1048B0004A49494948484847474747464646454583
:1048C00045444444444343434342424242414141BC
:1048D000002B9C4630D477002BD01CB54FEA37070D
:1048E00003B44FF010004FF01001BAF1000F06D0E2
:1048F000BCF1000FDCBF40F0080040F008014FF0B1
:1049000000000FBCBDE810400BF1010BBBF1010F23
:1049100008BF5FEA170722BF12F1010211F101017E
:104920004FF0004143F1000300F0004043EA000073
:104930007047F9D35708D0E746EA064613F1400F0F
:104940004FEA16461FDD13F1200FDFBF16430A465C
:10495000002120335B42BED0C3F1200746EA064661
:1049600002FA07F74FEA164646EA0706C3F12007A0
:1049700022FA03F201FA07F721FA03F14FF00003DC
:1049800042EA0702A7E746EA020646EA06464FEA77
:10499000164646EA0106BCBF46EA0646360C4FF00C
:1049A00000034FF000024FF0000194E72DE9804C26
:1049B0009A46934670B491E8380007C831EA400C33
:1049C00048BF34EA430C03D5FFF7E6FDFFF780FF4D
:1049D000F0BCBDE8008C2DE9804C9A46934670B43B
:1049E00091E8380007C810F0804F08BF13F0804FDF
:1049F00003D100F005F8FFF76BFFF0BCBDE8008CB9
:104A000020F07F4780EA030023F07F4C07EB0C0384
:104A1000A3F57C5300F00040A3F1FE0392F0000FD9
:104A200000F0B38095F0000F00F077802DE9014988
:104A30004FEA11404FEA144621EA004800FB06FC09
:104A400024EA064708FB06F607FB08F800FB07F711
:104A500018EB06484CEB164C4FEA124B18EB074884
:104A60004FEA15464CEB174022EA0B4E0BFB06FCB7
:104A700025EA06470EFB06F607FB0EFE0BFB07F7C3
:104A80001EEB064E4CEB164C4FF000061EEB074E8D
:104A90004CEB174B18EB0B0840F1000018EB0E0B1A
:104AA00058EB000840F100008F1A4FF000013CBFA6
:104AB000C943661B14BFB5EB040C00213CBFC943BE
:104AC000F61B4FEA17444EEA8E0E27EA04454FEADA
:104AD0001C4704FB07622CEA074C05FB07F70CFB9D
:104AE00005F604FB0CFC16EB074642EB174216EBEF
:104AF0000C4642EB1C421BEB060658EB02024141FE
:104B000046EA9E0601D5BDE80189B619524141EB3E
:104B10000101A3F10103BDE801894FEA14454FEA01
:104B2000114724EA054621EA074C05FB07F406FB7A
:104B300007F70CFB06F105FB0CFC11EB074144EBFE
:104B400017444FEA124711EB0C4144EB1C4422EA94
:104B5000074C05FB07F206FB07F70CFB06F605FB07
:104B60000CFC16EB074642EB174216EB0C4642EBE9
:104B70001C456A1854F1000148BF7047B6195241EC
:104B800041EB0101A3F10103704795F0000F37D00D
:104B90004FEA11424FEA144721EA024624EA074C41
:104BA00002FB07F106FB07F70CFB06F402FB0CFC0B
:104BB00014EB074441EB17414FEA154714EB0C4443
:104BC00041EB1C4125EA074C02FB07F506FB07F702
:104BD0000CFB06F602FB0CFC16EB074645EB1745F3
:104BE00016EB0C4645EB1C42121951F1000148BF6F
:104BF0007047B619524141EB0101A3F1010370471F
:104C00004FEA14454FEA114724EA054621EA074CCA
:104C100005FB07F106FB07F70CFB06F24FF0000659
:104C200005FB0CFC12EB074241EB174112EB0C4267
:104C300051EB1C4148BF7047921841EB0101A3F1B1
:104C400001037047490050EAC12018BF04204A0DF3
:104C500018BF40F0010040F2FF72B2EB515F08BF95
:104C600040F00200012808BF0520704730380A28AC
:104C700001D20120704700207047000010B50029C4
:104C80000AD00878002807D005487844FFF7D2FBFF
:104C9000002801D0002010BD0248784410BD00005B
:104CA000760400006E04000021F00042A2F1605280
:104CB000B2F5801F01F0004328BFD2F17F6C0BD901
:104CC0005FEA001C43EAC20242EB507018BF704713
:104CD00028BF20F001007047B2F5801FBCBF184606
:104CE00070474FEA410C1CF5001F02D2084600F045
:104CF00092B970B500F0CAF800000089FFF7F6BF5E
:104D00004FF00040A0F58000704710F0004248BF0F
:104D10004042B0FA80F310FA03F10AD0C3F11D0348
:104D200003F580634FEA415002EB035202EBD121BD
:104D300070474FF000007047DFF848C170B51CEABB
:104D4000111E1EBF1CEA13159EEA0C0F95EA0C0FEC
:104D500000F06F8081EA030423EA4C134EEAD47E0C
:104D600021EA4C1141F4801143F48013AE44A1FBBD
:104D7000024CA0FB0365AEF17F7E361955EB0C05A6
:104D8000A1FB034C4CF10003A0FB021C16EB0C062C
:104D9000654153F10003094218BF46F0010613F4C0
:104DA000007F0BD14FEA03314FEA0530340341EA6B
:104DB000155140EA16506FF003020AE04FEAC32192
:104DC0004FEAC520F40241EA555140EA56506FF0CF
:104DD000020202EB2E4201EB025585EACE710AD0A7
:104DE0005FEA440C18BF24F0004450F1000041F188
:104DF000000120EAD47040F2FE7C624500D270BD12
:104E0000A84214BF4FF080444FF04044002E08BF2A
:104E10000024BEF1806FA8BFA1F1C041BDE8704081
:104E200080F282804FF0000001F1C04101F00041AA
:104E300070479EEA0C0F0CEA131518BF95EA0C0F89
:104E400006D04FF0000081EA030E0EF0004170BD65
:104E500000F01CF88900013E00F007B800F009B826
:104E60004FEA430C5FEA5C5C08D081EA030100F082
:104E70005BB84FEA410C5FEA5C5CF6D14FF0000092
:104E8000014970470000FF070000F87F0EF1020E95
:104E90002EF0030E5EF8046B364205D4012A43EB74
:104EA000030515F5001F12D8012841EB010C1CF574
:104EB000001F0CD80ED14FEAD17C15F5001F0CEB6A
:104EC0004C0C0CF1020C08BF4CEBD37C04E04FF00F
:104ED000080C01E04FEAD37C0CEB4C0526FA05F6F2
:104EE00006F00706B6F1040C06D20EEB860CBDE800
:104EF00070404CF0010C6047DFE80CF0090B020237
:104F00004FF000414FF00000A1F5002170BD19469F
:104F10001046012851EB010418BFD4F5001484BFDA
:104F2000002001F0004170BD0808A0F500114FEA13
:104F30003101704743004FEAD30C4FEA3C0C434029
:104F40001FBF40070CF1605113F0FE4F70471CF07B
:104F5000006F03D100200CF0004170470CF00043BB
:104F600043EA507010B540EACC0000F00EF800BFE4
:104F7000000000924FEA0001FFF7D6BF4FF000415A
:104F80004FF00000A1F5002170470EF1020E2EF047
:104F9000030E5EF8044B244204D44FEA4102B2F1FE
:104FA0007F4F11D84FEA4003B3F17F4F0CD80ED199
:104FB0004FEAD07CB2F17F4F0CEB4C0C0CF1020CA1
:104FC00008BF4CEBD17C04E04FF0080C01E04FEA45
:104FD000D17C0CEB4C0324FA03F404F00704B4F185
:104FE000040C06D20EEB840CBDE810404CF0010C12
:104FF0006047DFE80CF0070802024FF00040A0F520
:10500000800010BD0846420018BFD2F1807288BFF0
:1050100000F0004010BDFF2141EAD050C0057047AC
:10502000FEF786BF303132333435363738394142B6
:1050300043444546403058003031323334353637FA
:105040003839616263646566403078000240000070
:10505000000000A00000000005400000000000C8A3
:10506000000000000C4000000000409C0000000018
:10507000194000000020BCBE0000000034400000C9
:10508000BFC91B8E00000004B5400000504BCFD0BC
:105090006607E2CF010000006C4100003E8251AA89
:1050A000DFEEA73401000000D9420000DCB5A0E229
:1050B0003A301F97FFFFFFFFB4450000FD25A0C851
:1050C000E9A3C14FFFFFFFFFFF3F0000000000808A
:1050D00000000000FF3F0000000000800000000012
:1050E0001C51000800000020E80400006C010008CA
:1050F00074540008E8040020580F0000C80100089C
:105100001C00000043000000F8FFFFFF0C0000003F
:105110000E0000000F0000002E00000001146201CC
:105120001310291306FF12022D110601FF081A01A0
:10513000023808048C0AF80215FF014A03075BFFD6
:1051400004085A05085A06086AAA48120D1302FFF5
:1051500012062B1102481206581201A2013F0F8CB1
:105160000AF4020866F4013408FF13202143A00F5B
:1051700016404202400212105D34085A0F430126C5
:1051800023C1C01B81C14119362301C323C003239E
:1051900080021B41C2101AC61019641B800710320E
:1051A000C71A05301AC5301AC4301A04201ACC2088
:1051B0001A0C201A0D2032CD198B1BC1CF201ACE0C
:1051C00020320E1A0A101ACA101ACB101A0B301AF3
:1051D000C9301A09301A08301AC8101AD8101A180B
:1051E000101A191032D91A1B301ADB301ADA303281
:1051F0001A1A1E101ADE101ADF101A1F301ADD30AC
:105200001A1D301A1C3032DC1A14201AD4201AD578
:10521000201A15201AD7201A17201A16201AD6106D
:105220001AD2101A12101A131032D31A11301AD1BE
:10523000301AD0301A10201AF0201A30201A3120DB
:1052400032F11A33201AF3201AF22032321A3610B1
:105250001AF6101AF7101A37301AF5301A35301AB4
:10526000343032F41A3C201AFC201AFD201A3D205A
:105270001AFF201A3F201A3E201AFE101AFA101A9E
:105280003A101A3B1032FB1A39301AF9301AF8303A
:1052900032381A28101AE8101AE9101A29301AEBB5
:1052A000301A2B301A2A301AEA101AEE101A2E1061
:1052B0001A2F1032EF1A2D301AED301AEC301A2C4A
:1052C000201AE4201A24201A252032E51A27201A51
:1052D000E7201AE62032261A22101AE2101AE310EA
:1052E0001A23301AE1301A21301A20301AE0101A2D
:1052F000A0101A60101A611032A11A63301AA3307C
:105300001AA23032621A66101AA6101AA7101A676B
:10531000301AA5301A65301A643032A41A6C201A7B
:10532000AC201AAD201A6D201AAF201A6F201A6E09
:10533000201AAE101AAA101A6A101A6B1032AB1A81
:1053400069301AA9301AA83032681A78101AB810C1
:105350001AB9101A79301ABB301A7B301A7A301AFF
:10536000BA101ABE101A7E101A7F1032BF1A7D3082
:105370001ABD301ABC301A7C201AB4201A74201AB4
:10538000752032B51A77201AB7201AB62032761A4D
:1053900072101AB2101AB3101A73301AB1301A718F
:1053A000301A703032B01A50201A90201A91201AF8
:1053B00051201A93201A53201A52201A92101A962A
:1053C000101A56101A571032971A55301A95301A6B
:1053D00094301A54201A9C201A5C201A5D20329DA9
:1053E0001A5F201A9F201A9E20325E1A5A101A9AAB
:1053F000101A9B101A5B301A99301A59301A58300B
:105400001A98101A88101A48101A491032891A4B23
:10541000301A8B301A8A30324A1A4E101A8E101AED
:105420008F101A4F301A8D301A4D301A4C30328C82
:105430001A44201A84201A85201A45201A87201A17
:1054400047201A46201A86101A82101A42101A4350
:105450001032831A41301A81301A80306240B2FF14
:105460002D010203040400090006070809020406CE
:045470000800000030
:0400000508000131BD
:00000001FF
